:020000040800F2
:1000000000C00020A9020008AD020008AF020008ED
:10001000B1020008B3020008B502000800000000A9
:10002000000000000000000000000000B70200080F
:10003000B902000800000000BB020008BD02000871
:10004000C5020008C5020008C5020008C502000874
:10005000C5020008C5020008C5020008C502000864
:10006000C5020008C5020008C5020008C502000854
:10007000C5020008C5020008C5020008C502000844
:10008000C5020008C5020008C5020008C502000834
:10009000C5020008C5020008C5020008C502000824
:1000A000C5020008C5020008C5020008C502000814
:1000B000C5020008C5020008C5020008C502000804
:1000C000C5020008C5020008C5020008C5020008F4
:1000D000C5020008C5020008C5020008C5020008E4
:1000E000C5020008C5020008C5020008C5020008D4
:1000F000C5020008C5020008C5020008C5020008C4
:10010000C5020008C5020008C5020008C5020008B3
:10011000C5020008C5020008C5020008C5020008A3
:10012000C5020008C5020008C5020008C502000893
:1001300000000000000000000000000000000000BF
:1001400000000000000000000000000000000000AF
:10015000000000000000000000000000000000009F
:10016000000000000000000000000000000000008F
:10017000000000000000000000000000000000007F
:10018000000000000000000000000000000000006F
:10019000000000000000000000000000000000005F
:1001A000000000000000000000000000000000004F
:1001B000000000000000000000000000000000003F
:1001C000000000000000000000000000000000002F
:1001D000000000000000000000000000000000001F
:1001E0005FF8E0F107B500F07BF80023234A2449CB
:1001F0009818884204D22349595899500433F5E796
:10020000214B224A934203D2002243F8042BF8E701
:1002100000F068F8684601A900F05AF81C4D1D4B23
:100220000024ED1AAD101E46AC4204DA56F8242024
:1002300090470134F8E7184B184D0024ED1AAD1023
:100240001E46AC4204DA56F8242090470134F8E701
:100250009DE8030000F05CF9114D124C0646641B4A
:10026000A41005EB8405002C04DD55F8043D013C89
:100270009847F8E7304600F027F800BF000000205C
:100280001C000020480500081C0000202000002061
:10029000C8020008C8020008C8020008C802000816
:1002A000C8020008C802000805480047FEE7FEE74C
:1002B000FEE7FEE7FEE7FEE7FEE7FEE77047000029
:0802C000E5010008FEE7000063
:1002C80008B500F00DF8000001230360014B0B6036
:1002D800704700BF0000002000F012B800F08AB894
:1002E800BFF34F8F044A054BD16801F4E0610B431B
:1002F800D360BFF34F8FFEE700ED00E00400FA057E
:10030800384B82B01A6842F001021A605968364ABE
:100318000A405A601A6822F0847222F480321A6005
:100328001A6822F480221A605A6822F4FE025A607F
:100338004FF41F029A600022009201921A6842F458
:1003480080321A601A6802F400320192009A01326F
:100358000092019A1AB9009AB2F5A06FF2D11A6800
:1003680012F4003218BF01220192019A012A05D025
:100378001E4B4FF000629A6002B070471C4A116829
:1003880041F010011160116821F00301116011683A
:1003980041F0020111605A685A605A685A605A68F6
:1003A80042F480625A605A6822F47C125A605A6891
:1003B80042F4E8125A601A6842F080721A601968AA
:1003C800084A8901FBD5516821F003015160516841
:1003D80041F0020151605A6802F00C02082AFAD171
:1003E800C6E700BF001002400000FFF800ED00E083
:1003F80000200240114A124B516801F00C010429F7
:1004080001D0082901D00F490EE051685068C1F3A6
:100418008341C00301F1020102D55068800301D570
:10042800094800E007484143196052680749C2F388
:100438000312895C1A68CA401A60704700100240AB
:100448001800002000127A0000093D000800002072
:10045800044B9A6909B1104301E022EA000098614F
:10046800704700BF00100240CB78F0B5DA0648BFED
:100478008A78098803F00F0548BF154311F0FF0F6C
:100488001DD0046800220127974007EA0106BE42F2
:1004980011D197004FF00F0C0CFA07FC05FA07F77B
:1004A80024EA0C04282B44EA070401D1466102E03F
:1004B800482B08BF06610132082AE4D10460FF29ED
:1004C8001FD94468002202F108060127B74007EA4D
:1004D8000106BE4211D197004FF00F0C0CFA07FC31
:1004E80005FA07F724EA0C04282B44EA070401D18B
:1004F800466102E0482B08BF06610132082AE2D1B2
:100508004460F0BD4161704713B5FFF7F9FE202044
:100518000121FFF79DFF042410238DF807300748B9
:1005280001230DEB0401ADF804408DF80630FFF708
:100538009BFF02482146FFF7E5FFFEE70014014054
:100548001C00002000000000000000000000000067
:0C055800010203040607080900A24A047F
:04000005080001E509
:00000001FF
